:0300000002004CAF
:100008000000E2FBEAF2802C0000E0FBEAF080242A
:10001800E6B50202EBF62200E2B50202EBF222009C
:10002800E0B50202EBF02230F6E0A88220F5D3EA30
:10003800C6F582228B822230F6E6A88220F5D98086
:01004800CFE8
:0300A5000200490D
:030049000200A80A
:1000A800750800750900750A00750B007E007F0051
:1000B8007D007C00BC0400503E8C0374042BF5903A
:1000C800BC03028012EC2408F9E7700BEC6015EB16
:1000D800142408F9E7600DEC2408F9E790015F9310
:1000E800F5A0800375A0007B00BB640050030B8063
:1000F800F875A0000C80BD20B2220EBE00010FC30F
:1001080074F49E74019F50AA750B00750A00750956
:10011800007508007E007F007D018096ED702BC37E
:10012800740A9EE49F5023E50B04F50B7C03EC60F6
:1001380019EC2408F98703BB0A00400B77008C03ED
:10014800EB142408F907E71C80E47E007F007D009B
:030158000200BAE8
:0A015F003F065B4F666D7D277F6F42
:06007B00E478FFF6D8FD59
:100059007900E94400601B7A00900169780175A074
:1000690000E493F2A308B8000205A0D9F4DAF27506
:02007900A0FFE6
:100081007800E84400600A790175A000E4F309D81A
:10009100FC7800E84400600C7900900001E4F0A3D2
:0400A100D8FCD9FAB4
:0D004C0075810B12015BE582600302004923
:04015B007582002287
:00000001FF
